{"abi":[{"type":"constructor","inputs":[{"name":"hub_","type":"address","internalType":"contract IBunniHub"},{"name":"key_","type":"tuple","internalType":"struct BunniKey","components":[{"name":"pool","type":"address","internalType":"contract IUniswapV3Pool"},{"name":"tickLower","type":"int24","internalType":"int24"},{"name":"tickUpper","type":"int24","internalType":"int24"}]}],"stateMutability":"nonpayable"},{"type":"function","name":"DOMAIN_SEPARATOR","inputs":[],"outputs":[{"name":"","type":"bytes32","internalType":"bytes32"}],"stateMutability":"view"},{"type":"function","name":"allowance","inputs":[{"name":"","type":"address","internalType":"address"},{"name":"","type":"address","internalType":"address"}],"outputs":[{"name":"","type":"uint256","internalType":"uint256"}],"stateMutability":"view"},{"type":"function","name":"approve","inputs":[{"name":"spender","type":"address","internalType":"address"},{"name":"amount","type":"uint256","internalType":"uint256"}],"outputs":[{"name":"","type":"bool","internalType":"bool"}],"stateMutability":"nonpayable"},{"type":"function","name":"balanceOf","inputs":[{"name":"","type":"address","internalType":"address"}],"outputs":[{"name":"","type":"uint256","internalType":"uint256"}],"stateMutability":"view"},{"type":"function","name":"burn","inputs":[{"name":"from","type":"address","internalType":"address"},{"name":"amount","type":"uint256","internalType":"uint256"}],"outputs":[],"stateMutability":"nonpayable"},{"type":"function","name":"decimals","inputs":[],"outputs":[{"name":"","type":"uint8","internalType":"uint8"}],"stateMutability":"view"},{"type":"function","name":"hub","inputs":[],"outputs":[{"name":"","type":"address","internalType":"contract IBunniHub"}],"stateMutability":"view"},{"type":"function","name":"mint","inputs":[{"name":"to","type":"address","internalType":"address"},{"name":"amount","type":"uint256","internalType":"uint256"}],"outputs":[],"stateMutability":"nonpayable"},{"type":"function","name":"name","inputs":[],"outputs":[{"name":"","type":"string","internalType":"string"}],"stateMutability":"view"},{"type":"function","name":"nonces","inputs":[{"name":"","type":"address","internalType":"address"}],"outputs":[{"name":"","type":"uint256","internalType":"uint256"}],"stateMutability":"view"},{"type":"function","name":"permit","inputs":[{"name":"owner","type":"address","internalType":"address"},{"name":"spender","type":"address","internalType":"address"},{"name":"value","type":"uint256","internalType":"uint256"},{"name":"deadline","type":"uint256","internalType":"uint256"},{"name":"v","type":"uint8","internalType":"uint8"},{"name":"r","type":"bytes32","internalType":"bytes32"},{"name":"s","type":"bytes32","internalType":"bytes32"}],"outputs":[],"stateMutability":"nonpayable"},{"type":"function","name":"pool","inputs":[],"outputs":[{"name":"","type":"address","internalType":"contract IUniswapV3Pool"}],"stateMutability":"view"},{"type":"function","name":"symbol","inputs":[],"outputs":[{"name":"","type":"string","internalType":"string"}],"stateMutability":"view"},{"type":"function","name":"tickLower","inputs":[],"outputs":[{"name":"","type":"int24","internalType":"int24"}],"stateMutability":"view"},{"type":"function","name":"tickUpper","inputs":[],"outputs":[{"name":"","type":"int24","internalType":"int24"}],"stateMutability":"view"},{"type":"function","name":"totalSupply","inputs":[],"outputs":[{"name":"","type":"uint256","internalType":"uint256"}],"stateMutability":"view"},{"type":"function","name":"transfer","inputs":[{"name":"to","type":"address","internalType":"address"},{"name":"amount","type":"uint256","internalType":"uint256"}],"outputs":[{"name":"","type":"bool","internalType":"bool"}],"stateMutability":"nonpayable"},{"type":"function","name":"transferFrom","inputs":[{"name":"from","type":"address","internalType":"address"},{"name":"to","type":"address","internalType":"address"},{"name":"amount","type":"uint256","internalType":"uint256"}],"outputs":[{"name":"","type":"bool","internalType":"bool"}],"stateMutability":"nonpayable"},{"type":"event","name":"Approval","inputs":[{"name":"owner","type":"address","indexed":true,"internalType":"address"},{"name":"spender","type":"address","indexed":true,"internalType":"address"},{"name":"value","type":"uint256","indexed":false,"internalType":"uint256"}],"anonymous":false},{"type":"event","name":"Transfer","inputs":[{"name":"from","type":"address","indexed":true,"internalType":"address"},{"name":"to","type":"address","indexed":true,"internalType":"address"},{"name":"value","type":"uint256","indexed":false,"internalType":"uint256"}],"anonymous":false}],"bytecode":{"object":"0x6101606040523480156200001257600080fd5b506040516200153d3803806200153d833981016040819052620000359162000367565b80600001516001600160a01b0316630dfe16816040518163ffffffff1660e01b8152600401602060405180830381865afa15801562000078573d6000803e3d6000fd5b505050506040513d601f19601f820116820180604052508101906200009e91906200040a565b6001600160a01b03166395d89b416040518163ffffffff1660e01b8152600401600060405180830381865afa158015620000dc573d6000803e3d6000fd5b505050506040513d6000823e601f3d908101601f1916820160405262000106919081019062000464565b81600001516001600160a01b031663d21220a76040518163ffffffff1660e01b8152600401602060405180830381865afa15801562000149573d6000803e3d6000fd5b505050506040513d601f19601f820116820180604052508101906200016f91906200040a565b6001600160a01b03166395d89b416040518163ffffffff1660e01b8152600401600060405180830381865afa158015620001ad573d6000803e3d6000fd5b505050506040513d6000823e601f3d908101601f19168201604052620001d7919081019062000464565b604051602001620001ea9291906200051c565b60408051601f198184030181528282019091526008825267042554e4e492d4c560c41b602083015290601260006200022384826200060d565b5060016200023283826200060d565b5060ff81166080524660a0526200024862000284565b60c052505081516001600160a01b0390811660e0526020830151600290810b6101005260409093015190920b6101205250166101405262000757565b60007f8b73c3c69bb8fe3d512ecc4cf759cc79239f7b179b0ffacaa9a75d522b39400f6000604051620002b89190620006d9565b6040805191829003822060208301939093528101919091527fc89efdaa54c0f20c7adf612882df0950f5a951637e0307cdcb4c672f298b8bc660608201524660808201523060a082015260c00160405160208183030381529060405280519060200120905090565b6001600160a01b03811681146200033657600080fd5b50565b634e487b7160e01b600052604160045260246000fd5b8051600281900b81146200036257600080fd5b919050565b60008082840360808112156200037c57600080fd5b8351620003898162000320565b92506060601f19820112156200039e57600080fd5b50604051606081016001600160401b0381118282101715620003c457620003c462000339565b6040526020840151620003d78162000320565b8152620003e7604085016200034f565b6020820152620003fa606085016200034f565b6040820152809150509250929050565b6000602082840312156200041d57600080fd5b81516200042a8162000320565b9392505050565b60005b838110156200044e57818101518382015260200162000434565b838111156200045e576000848401525b50505050565b6000602082840312156200047757600080fd5b81516001600160401b03808211156200048f57600080fd5b818401915084601f830112620004a457600080fd5b815181811115620004b957620004b962000339565b604051601f8201601f19908116603f01168101908382118183101715620004e457620004e462000339565b81604052828152876020848701011115620004fe57600080fd5b6200051183602083016020880162000431565b979650505050505050565b650213ab73734960d51b8152600083516200053f81600685016020880162000431565b602f60f81b60069184019182015283516200056281600784016020880162000431565b620204c560ec1b60079290910191820152600a01949350505050565b600181811c908216806200059357607f821691505b602082108103620005b457634e487b7160e01b600052602260045260246000fd5b50919050565b601f8211156200060857600081815260208120601f850160051c81016020861015620005e35750805b601f850160051c820191505b818110156200060457828155600101620005ef565b5050505b505050565b81516001600160401b0381111562000629576200062962000339565b62000641816200063a84546200057e565b84620005ba565b602080601f831160018114620006795760008415620006605750858301515b600019600386901b1c1916600185901b17855562000604565b600085815260208120601f198616915b82811015620006aa5788860151825594840194600190910190840162000689565b5085821015620006c95787850151600019600388901b60f8161c191681555b5050505050600190811b01905550565b6000808354620006e9816200057e565b600182811680156200070457600181146200071a576200074b565b60ff19841687528215158302870194506200074b565b8760005260208060002060005b85811015620007425781548a82015290840190820162000727565b50505082870194505b50929695505050505050565b60805160a05160c05160e051610100516101205161014051610d7d620007c06000396000818161020b0152818161058f015261060d015260006102470152600061028101526000610161015260006105620152600061052d015260006101ca0152610d7d6000f3fe608060405234801561001057600080fd5b50600436106101165760003560e01c806355b812a8116100a257806395d89b411161007157806395d89b41146102e35780639dc29fac146102eb578063a9059cbb146102fe578063d505accf14610311578063dd62ed3e1461032457600080fd5b806355b812a81461024257806359c4f9051461027c57806370a08231146102a35780637ecebe00146102c357600080fd5b806323b872dd116100e957806323b872dd146101b2578063313ce567146101c55780633644e515146101fe578063365a86fc1461020657806340c10f191461022d57600080fd5b806306fdde031461011b578063095ea7b31461013957806316f0115b1461015c57806318160ddd1461019b575b600080fd5b61012361034f565b6040516101309190610a6a565b60405180910390f35b61014c610147366004610adb565b6103dd565b6040519015158152602001610130565b6101837f000000000000000000000000000000000000000000000000000000000000000081565b6040516001600160a01b039091168152602001610130565b6101a460025481565b604051908152602001610130565b61014c6101c0366004610b05565b610449565b6101ec7f000000000000000000000000000000000000000000000000000000000000000081565b60405160ff9091168152602001610130565b6101a4610529565b6101837f000000000000000000000000000000000000000000000000000000000000000081565b61024061023b366004610adb565b610584565b005b6102697f000000000000000000000000000000000000000000000000000000000000000081565b60405160029190910b8152602001610130565b6102697f000000000000000000000000000000000000000000000000000000000000000081565b6101a46102b1366004610b41565b60036020526000908152604090205481565b6101a46102d1366004610b41565b60056020526000908152604090205481565b6101236105f5565b6102406102f9366004610adb565b610602565b61014c61030c366004610adb565b61066a565b61024061031f366004610b63565b6106d0565b6101a4610332366004610bd6565b600460209081526000928352604080842090915290825290205481565b6000805461035c90610c09565b80601f016020809104026020016040519081016040528092919081815260200182805461038890610c09565b80156103d55780601f106103aa576101008083540402835291602001916103d5565b820191906000526020600020905b8154815290600101906020018083116103b857829003601f168201915b505050505081565b3360008181526004602090815260408083206001600160a01b038716808552925280832085905551919290917f8c5be1e5ebec7d5bd14f71427d1e84f3dd0314c0f7b2291e5b200ac8c7c3b925906104389086815260200190565b60405180910390a350600192915050565b6001600160a01b038316600090815260046020908152604080832033845290915281205460001981146104a5576104808382610c59565b6001600160a01b03861660009081526004602090815260408083203384529091529020555b6001600160a01b038516600090815260036020526040812080548592906104cd908490610c59565b90915550506001600160a01b0380851660008181526003602052604090819020805487019055519091871690600080516020610d28833981519152906105169087815260200190565b60405180910390a3506001949350505050565b60007f0000000000000000000000000000000000000000000000000000000000000000461461055f5761055a610914565b905090565b507f000000000000000000000000000000000000000000000000000000000000000090565b336001600160a01b037f000000000000000000000000000000000000000000000000000000000000000016146105e75760405162461bcd60e51b815260206004820152600360248201526257484f60e81b60448201526064015b60405180910390fd5b6105f182826109ae565b5050565b6001805461035c90610c09565b336001600160a01b037f000000000000000000000000000000000000000000000000000000000000000016146106605760405162461bcd60e51b815260206004820152600360248201526257484f60e81b60448201526064016105de565b6105f18282610a08565b3360009081526003602052604081208054839190839061068b908490610c59565b90915550506001600160a01b03831660008181526003602052604090819020805485019055513390600080516020610d28833981519152906104389086815260200190565b428410156107205760405162461bcd60e51b815260206004820152601760248201527f5045524d49545f444541444c494e455f4558504952454400000000000000000060448201526064016105de565b6000600161072c610529565b6001600160a01b038a811660008181526005602090815260409182902080546001810190915582517f6e71edae12b1b97f4d1f60370fef10105fa2faae0126114a169c64845d6126c98184015280840194909452938d166060840152608083018c905260a083019390935260c08083018b90528151808403909101815260e08301909152805192019190912061190160f01b6101008301526101028201929092526101228101919091526101420160408051601f198184030181528282528051602091820120600084529083018083525260ff871690820152606081018590526080810184905260a0016020604051602081039080840390855afa158015610838573d6000803e3d6000fd5b5050604051601f1901519150506001600160a01b0381161580159061086e5750876001600160a01b0316816001600160a01b0316145b6108ab5760405162461bcd60e51b815260206004820152600e60248201526d24a72b20a624a22fa9a4a3a722a960911b60448201526064016105de565b6001600160a01b0390811660009081526004602090815260408083208a8516808552908352928190208990555188815291928a16917f8c5be1e5ebec7d5bd14f71427d1e84f3dd0314c0f7b2291e5b200ac8c7c3b925910160405180910390a350505050505050565b60007f8b73c3c69bb8fe3d512ecc4cf759cc79239f7b179b0ffacaa9a75d522b39400f60006040516109469190610c70565b6040805191829003822060208301939093528101919091527fc89efdaa54c0f20c7adf612882df0950f5a951637e0307cdcb4c672f298b8bc660608201524660808201523060a082015260c00160405160208183030381529060405280519060200120905090565b80600260008282546109c09190610d0f565b90915550506001600160a01b038216600081815260036020908152604080832080548601905551848152600080516020610d2883398151915291015b60405180910390a35050565b6001600160a01b03821660009081526003602052604081208054839290610a30908490610c59565b90915550506002805482900390556040518181526000906001600160a01b03841690600080516020610d28833981519152906020016109fc565b600060208083528351808285015260005b81811015610a9757858101830151858201604001528201610a7b565b81811115610aa9576000604083870101525b50601f01601f1916929092016040019392505050565b80356001600160a01b0381168114610ad657600080fd5b919050565b60008060408385031215610aee57600080fd5b610af783610abf565b946020939093013593505050565b600080600060608486031215610b1a57600080fd5b610b2384610abf565b9250610b3160208501610abf565b9150604084013590509250925092565b600060208284031215610b5357600080fd5b610b5c82610abf565b9392505050565b600080600080600080600060e0888a031215610b7e57600080fd5b610b8788610abf565b9650610b9560208901610abf565b95506040880135945060608801359350608088013560ff81168114610bb957600080fd5b9699959850939692959460a0840135945060c09093013592915050565b60008060408385031215610be957600080fd5b610bf283610abf565b9150610c0060208401610abf565b90509250929050565b600181811c90821680610c1d57607f821691505b602082108103610c3d57634e487b7160e01b600052602260045260246000fd5b50919050565b634e487b7160e01b600052601160045260246000fd5b600082821015610c6b57610c6b610c43565b500390565b600080835481600182811c915080831680610c8c57607f831692505b60208084108203610cab57634e487b7160e01b86526022600452602486fd5b818015610cbf5760018114610cd457610d01565b60ff1986168952841515850289019650610d01565b60008a81526020902060005b86811015610cf95781548b820152908501908301610ce0565b505084890196505b509498975050505050505050565b60008219821115610d2257610d22610c43565b50019056feddf252ad1be2c89b69c2b068fc378daa952ba7f163c4a11628f55a4df523b3efa2646970667358221220d3ff5ec0c50ffaed43534614d6239d168e19c43cfc3664e8308ee7ac5185194264736f6c634300080f0033","linkReferences":{}},"methodIdentifiers":{"DOMAIN_SEPARATOR()":"3644e515","allowance(address,address)":"dd62ed3e","approve(address,uint256)":"095ea7b3","balanceOf(address)":"70a08231","burn(address,uint256)":"9dc29fac","decimals()":"313ce567","hub()":"365a86fc","mint(address,uint256)":"40c10f19","name()":"06fdde03","nonces(address)":"7ecebe00","permit(address,address,uint256,uint256,uint8,bytes32,bytes32)":"d505accf","pool()":"16f0115b","symbol()":"95d89b41","tickLower()":"59c4f905","tickUpper()":"55b812a8","totalSupply()":"18160ddd","transfer(address,uint256)":"a9059cbb","transferFrom(address,address,uint256)":"23b872dd"},"id":21}