{"abi":[{"type":"function","name":"getTWAPRatio","inputs":[{"name":"pool_","type":"address","internalType":"address"},{"name":"period_","type":"uint32","internalType":"uint32"}],"outputs":[{"name":"","type":"uint256","internalType":"uint256"}],"stateMutability":"view"},{"type":"function","name":"getTWAPRatio","inputs":[{"name":"pool_","type":"address","internalType":"address"},{"name":"period_","type":"uint32","internalType":"uint32"},{"name":"token0_","type":"address","internalType":"address"},{"name":"token1_","type":"address","internalType":"address"},{"name":"token0Decimals_","type":"uint8","internalType":"uint8"}],"outputs":[{"name":"","type":"uint256","internalType":"uint256"}],"stateMutability":"view"},{"type":"function","name":"getTimeWeightedTick","inputs":[{"name":"pool_","type":"address","internalType":"address"},{"name":"period_","type":"uint32","internalType":"uint32"}],"outputs":[{"name":"","type":"int56","internalType":"int56"}],"stateMutability":"view"},{"type":"error","name":"T","inputs":[]},{"type":"error","name":"UniswapV3OracleHelper_InvalidObservation","inputs":[{"name":"pool_","type":"address","internalType":"address"},{"name":"observationWindow_","type":"uint32","internalType":"uint32"}]},{"type":"error","name":"UniswapV3OracleHelper_ObservationTooShort","inputs":[{"name":"pool_","type":"address","internalType":"address"},{"name":"observationWindow_","type":"uint32","internalType":"uint32"},{"name":"minObservationWindow_","type":"uint32","internalType":"uint32"}]},{"type":"error","name":"UniswapV3OracleHelper_TickOutOfBounds","inputs":[{"name":"pool_","type":"address","internalType":"address"},{"name":"timeWeightedTick_","type":"int56","internalType":"int56"},{"name":"minTick_","type":"int24","internalType":"int24"},{"name":"maxTick_","type":"int24","internalType":"int24"}]}],"bytecode":{"object":"0x610ef861003a600b82828239805160001a60731461002d57634e487b7160e01b600052600060045260246000fd5b30600052607381538281f3fe730000000000000000000000000000000000000000301460806040526004361061004b5760003560e01c8063830647a1146100505780638e729c3c14610076578063b082a8a714610089575b600080fd5b61006361005e3660046109ce565b6100af565b6040519081526020015b60405180910390f35b610063610084366004610a12565b610217565b61009c6100973660046109ce565b61024a565b60405160069190910b815260200161006d565b6000806100bc848461024a565b905060008490506000816001600160a01b0316630dfe16816040518163ffffffff1660e01b8152600401602060405180830381865afa158015610103573d6000803e3d6000fd5b505050506040513d601f19601f820116820180604052508101906101279190610a81565b90506000826001600160a01b031663d21220a76040518163ffffffff1660e01b8152600401602060405180830381865afa158015610169573d6000803e3d6000fd5b505050506040513d601f19601f8201168201806040525081019061018d9190610a81565b9050600061020985846001600160a01b031663313ce5676040518163ffffffff1660e01b8152600401602060405180830381865afa1580156101d3573d6000803e3d6000fd5b505050506040513d601f19601f820116820180604052508101906101f79190610a9e565b61020290600a610bb5565b85856104b9565b955050505050505b92915050565b600080610224878761024a565b9050600061023e8261023786600a610bb5565b88886104b9565b98975050505050505050565b600082601363ffffffff8416101561029857604051630c8181b160e11b81526001600160a01b038516600482015263ffffffff84166024820152601360448201526064015b60405180910390fd5b60408051600280825260608201835260009260208301908036833701905050905083816000815181106102cd576102cd610bda565b602002602001019063ffffffff16908163ffffffff16815250506000816001815181106102fc576102fc610bda565b63ffffffff9092166020928302919091019091015260405163883bdbfd60e01b81526000906001600160a01b0384169063883bdbfd90610340908590600401610bf0565b600060405180830381865afa92505050801561037e57506040513d6000823e601f3d908101601f1916820160405261037b9190810190610d03565b60015b6103e2573d8080156103ac576040519150601f19603f3d011682016040523d82523d6000602084013e6103b1565b606091505b5060405163cfbb174360e01b81526001600160a01b038816600482015263ffffffff8716602482015260440161028f565b8660030b826000815181106103f9576103f9610bda565b60200260200101518360018151811061041457610414610bda565b60200260200101516104269190610dcf565b6104309190610e35565b92505050610441620d89e719610e81565b60020b8160060b138061045b5750620d89e719600682900b125b156104b0578581620d89e71961047081610e81565b60405163b4657dcb60e01b81526001600160a01b03909416600485015260069290920b6024840152600290810b60448401520b606482015260840161028f565b95945050505050565b6000806104c5866105c7565b90506001600160801b036001600160a01b0382161161054b5760006104f36001600160a01b03831680610ea3565b9050836001600160a01b0316856001600160a01b03161061052b57610526600160c01b876001600160801b0316836108ea565b610543565b61054381876001600160801b0316600160c01b6108ea565b9250506105be565b600061056a6001600160a01b03831680680100000000000000006108ea565b9050836001600160a01b0316856001600160a01b0316106105a25761059d600160801b876001600160801b0316836108ea565b6105ba565b6105ba81876001600160801b0316600160801b6108ea565b9250505b50949350505050565b60008060008360020b126105de578260020b6105e6565b8260020b6000035b9050620d89e881111561060c576040516315e4079d60e11b815260040160405180910390fd5b60008160011660000361062357600160801b610635565b6ffffcb933bd6fad37aa2d162d1a5940015b70ffffffffffffffffffffffffffffffffff1690506002821615610669576ffff97272373d413259a46990580e213a0260801c5b6004821615610688576ffff2e50f5f656932ef12357cf3c7fdcc0260801c5b60088216156106a7576fffe5caca7e10e4e61c3624eaa0941cd00260801c5b60108216156106c6576fffcb9843d60f6159c9db58835c9266440260801c5b60208216156106e5576fff973b41fa98c081472e6896dfb254c00260801c5b6040821615610704576fff2ea16466c96a3843ec78b326b528610260801c5b6080821615610723576ffe5dee046a99a2a811c461f1969c30530260801c5b610100821615610743576ffcbe86c7900a88aedcffc83b479aa3a40260801c5b610200821615610763576ff987a7253ac413176f2b074cf7815e540260801c5b610400821615610783576ff3392b0822b70005940c7a398e4b70f30260801c5b6108008216156107a3576fe7159475a2c29b7443b29c7fa6e889d90260801c5b6110008216156107c3576fd097f3bdfd2022b8845ad8f792aa58250260801c5b6120008216156107e3576fa9f746462d870fdf8a65dc1f90e061e50260801c5b614000821615610803576f70d869a156d2a1b890bb3df62baf32f70260801c5b618000821615610823576f31be135f97d08fd981231505542fcfa60260801c5b62010000821615610844576f09aa508b5b7a84e1c677de54f3e99bc90260801c5b62020000821615610864576e5d6af8dedb81196699c329225ee6040260801c5b62040000821615610883576d2216e584f5fa1ea926041bedfe980260801c5b620800008216156108a0576b048a170391f7dc42444e8fa20260801c5b60008460020b13156108c15780600019816108bd576108bd610e1f565b0490505b6401000000008106156108d55760016108d8565b60005b60ff16602082901c0192505050919050565b6000808060001985870985870292508281108382030391505080600003610923576000841161091857600080fd5b508290049050610996565b80841161092f57600080fd5b6000848688096000868103871696879004966002600389028118808a02820302808a02820302808a02820302808a02820302808a02820302808a02909103029181900381900460010186841190950394909402919094039290920491909117919091029150505b9392505050565b6001600160a01b03811681146109b257600080fd5b50565b803563ffffffff811681146109c957600080fd5b919050565b600080604083850312156109e157600080fd5b82356109ec8161099d565b91506109fa602084016109b5565b90509250929050565b60ff811681146109b257600080fd5b600080600080600060a08688031215610a2a57600080fd5b8535610a358161099d565b9450610a43602087016109b5565b93506040860135610a538161099d565b92506060860135610a638161099d565b91506080860135610a7381610a03565b809150509295509295909350565b600060208284031215610a9357600080fd5b81516109968161099d565b600060208284031215610ab057600080fd5b815161099681610a03565b634e487b7160e01b600052601160045260246000fd5b600181815b80851115610b0c578160001904821115610af257610af2610abb565b80851615610aff57918102915b93841c9390800290610ad6565b509250929050565b600082610b2357506001610211565b81610b3057506000610211565b8160018114610b465760028114610b5057610b6c565b6001915050610211565b60ff841115610b6157610b61610abb565b50506001821b610211565b5060208310610133831016604e8410600b8410161715610b8f575081810a610211565b610b998383610ad1565b8060001904821115610bad57610bad610abb565b029392505050565b600061099660ff841683610b14565b634e487b7160e01b600052604160045260246000fd5b634e487b7160e01b600052603260045260246000fd5b6020808252825182820181905260009190848201906040850190845b81811015610c2e57835163ffffffff1683529284019291840191600101610c0c565b50909695505050505050565b604051601f8201601f1916810167ffffffffffffffff81118282101715610c6357610c63610bc4565b604052919050565b600067ffffffffffffffff821115610c8557610c85610bc4565b5060051b60200190565b600082601f830112610ca057600080fd5b81516020610cb5610cb083610c6b565b610c3a565b82815260059290921b84018101918181019086841115610cd457600080fd5b8286015b84811015610cf8578051610ceb8161099d565b8352918301918301610cd8565b509695505050505050565b60008060408385031215610d1657600080fd5b825167ffffffffffffffff80821115610d2e57600080fd5b818501915085601f830112610d4257600080fd5b81516020610d52610cb083610c6b565b82815260059290921b84018101918181019089841115610d7157600080fd5b948201945b83861015610d9f5785518060060b8114610d905760008081fd5b82529482019490820190610d76565b91880151919650909350505080821115610db857600080fd5b50610dc585828601610c8f565b9150509250929050565b60008160060b8360060b6000811281667fffffffffffff1901831281151615610dfa57610dfa610abb565b81667fffffffffffff018313811615610e1557610e15610abb565b5090039392505050565b634e487b7160e01b600052601260045260246000fd5b60008160060b8360060b80610e5a57634e487b7160e01b600052601260045260246000fd5b667fffffffffffff19821460001982141615610e7857610e78610abb565b90059392505050565b60008160020b627fffff198103610e9a57610e9a610abb565b60000392915050565b6000816000190483118215151615610ebd57610ebd610abb565b50029056fea26469706673582212208fbca38ed03cb58b778c839283a374c42183ef78c2527edb3587f08427ecc43864736f6c634300080f0033","linkReferences":{}},"methodIdentifiers":{"getTWAPRatio(address,uint32)":"830647a1","getTWAPRatio(address,uint32,address,address,uint8)":"8e729c3c","getTimeWeightedTick(address,uint32)":"b082a8a7"},"id":23}