{"abi":[{"type":"function","name":"getFullRangeBunniKey","inputs":[{"name":"pool_","type":"address","internalType":"address"}],"outputs":[{"name":"","type":"tuple","internalType":"struct BunniKey","components":[{"name":"pool","type":"IUniswapV3Pool","internalType":"contract IUniswapV3Pool"},{"name":"tickLower","type":"int24","internalType":"int24"},{"name":"tickUpper","type":"int24","internalType":"int24"}]}],"stateMutability":"view"},{"type":"function","name":"getReservesRatio","inputs":[{"name":"key_","type":"tuple","internalType":"struct BunniKey","components":[{"name":"pool","type":"IUniswapV3Pool","internalType":"contract IUniswapV3Pool"},{"name":"tickLower","type":"int24","internalType":"int24"},{"name":"tickUpper","type":"int24","internalType":"int24"}]},{"name":"lens_","type":"BunniLens","internalType":"contract BunniLens"}],"outputs":[{"name":"","type":"uint256","internalType":"uint256"}],"stateMutability":"view"}],"bytecode":{"object":"0x61086e61003a600b82828239805160001a60731461002d57634e487b7160e01b600052600060045260246000fd5b30600052607381538281f3fe73000000000000000000000000000000000000000030146080604052600436106100405760003560e01c8063662bb3b114610045578063a547199b1461006e575b600080fd5b61005861005336600461044c565b61008f565b6040516100659190610469565b60405180910390f35b61008161007c3660046104ab565b61017e565b604051908152602001610065565b60408051606081018252600080825260208201819052918101919091526000826001600160a01b031663d0c93a7c6040518163ffffffff1660e01b8152600401602060405180830381865afa1580156100ec573d6000803e3d6000fd5b505050506040513d601f19601f820116820180604052508101906101109190610550565b90506040518060600160405280846001600160a01b031681526020018283620d89e71961013d9190610583565b61014791906105cb565b60020b8152602001828061015e620d89e719610658565b6101689190610583565b61017291906105cb565b60020b90529392505050565b600080836000015190506000816001600160a01b0316630dfe16816040518163ffffffff1660e01b8152600401602060405180830381865afa1580156101c8573d6000803e3d6000fd5b505050506040513d601f19601f820116820180604052508101906101ec919061067a565b6001600160a01b031663313ce5676040518163ffffffff1660e01b8152600401602060405180830381865afa158015610229573d6000803e3d6000fd5b505050506040513d601f19601f8201168201806040525081019061024d9190610697565b9050600080856001600160a01b031663c29d4d88886040518263ffffffff1660e01b815260040161027e9190610469565b6040805180830381865afa15801561029a573d6000803e3d6000fd5b505050506040513d601f19601f820116820180604052508101906102be91906106d6565b91509150600080876001600160a01b031663735485a28a6040518263ffffffff1660e01b81526004016102f19190610469565b6040805180830381865afa15801561030d573d6000803e3d6000fd5b505050506040513d601f19601f820116820180604052508101906103319190610709565b909250905061037161034486600a610811565b610357846001600160701b038816610820565b61036a846001600160701b038816610820565b9190610380565b96505050505050505b92915050565b60008080600019858709858702925082811083820303915050806000036103b957600084116103ae57600080fd5b50829004905061042d565b8084116103c557600080fd5b600084868809851960019081018716968790049682860381900495909211909303600082900391909104909201919091029190911760038402600290811880860282030280860282030280860282030280860282030280860282030280860290910302029150505b9392505050565b6001600160a01b038116811461044957600080fd5b50565b60006020828403121561045e57600080fd5b813561042d81610434565b6060810161037a828460018060a01b038151168252602081015160020b6020830152604081015160020b60408301525050565b8060020b811461044957600080fd5b60008082840360808112156104bf57600080fd5b60608112156104cd57600080fd5b506040516060810181811067ffffffffffffffff821117156104ff57634e487b7160e01b600052604160045260246000fd5b604052833561050d81610434565b8152602084013561051d8161049c565b602082015260408401356105308161049c565b60408201529150606083013561054581610434565b809150509250929050565b60006020828403121561056257600080fd5b815161042d8161049c565b634e487b7160e01b600052601160045260246000fd5b60008160020b8360020b806105a857634e487b7160e01b600052601260045260246000fd5b627fffff198214600019821416156105c2576105c261056d565b90059392505050565b60008160020b8360020b627fffff6000821360008413838304851182821616156105f7576105f761056d565b627fffff1960008512828116878305871216156106165761061661056d565b600087129250858205871284841616156106325761063261056d565b858505871281841616156106485761064861056d565b5050509290910295945050505050565b60008160020b627fffff1981036106715761067161056d565b60000392915050565b60006020828403121561068c57600080fd5b815161042d81610434565b6000602082840312156106a957600080fd5b815160ff8116811461042d57600080fd5b80516001600160701b03811681146106d157600080fd5b919050565b600080604083850312156106e957600080fd5b6106f2836106ba565b9150610700602084016106ba565b90509250929050565b6000806040838503121561071c57600080fd5b505080516020909101519092909150565b600181815b8085111561076857816000190482111561074e5761074e61056d565b8085161561075b57918102915b93841c9390800290610732565b509250929050565b60008261077f5750600161037a565b8161078c5750600061037a565b81600181146107a257600281146107ac576107c8565b600191505061037a565b60ff8411156107bd576107bd61056d565b50506001821b61037a565b5060208310610133831016604e8410600b84101617156107eb575081810a61037a565b6107f5838361072d565b80600019048211156108095761080961056d565b029392505050565b600061042d60ff841683610770565b600082198211156108335761083361056d565b50019056fea26469706673582212200d0b4208b231bf4acd343626f6f4e97b3dce7fc30dde0f4f240f965ae4a16d2664736f6c634300080f0033","linkReferences":{}},"methodIdentifiers":{"getFullRangeBunniKey(address)":"662bb3b1","getReservesRatio(BunniKey,BunniLens)":"a547199b"},"id":19}