{"abi":[{"type":"constructor","inputs":[{"name":"hub_","type":"address","internalType":"contract IBunniHub"}],"stateMutability":"nonpayable"},{"type":"function","name":"getReserves","inputs":[{"name":"key","type":"tuple","internalType":"struct BunniKey","components":[{"name":"pool","type":"address","internalType":"contract IUniswapV3Pool"},{"name":"tickLower","type":"int24","internalType":"int24"},{"name":"tickUpper","type":"int24","internalType":"int24"}]}],"outputs":[{"name":"reserve0","type":"uint112","internalType":"uint112"},{"name":"reserve1","type":"uint112","internalType":"uint112"}],"stateMutability":"view"},{"type":"function","name":"getUncollectedFees","inputs":[{"name":"key","type":"tuple","internalType":"struct BunniKey","components":[{"name":"pool","type":"address","internalType":"contract IUniswapV3Pool"},{"name":"tickLower","type":"int24","internalType":"int24"},{"name":"tickUpper","type":"int24","internalType":"int24"}]}],"outputs":[{"name":"fee0","type":"uint256","internalType":"uint256"},{"name":"fee1","type":"uint256","internalType":"uint256"}],"stateMutability":"view"},{"type":"function","name":"hub","inputs":[],"outputs":[{"name":"","type":"address","internalType":"contract IBunniHub"}],"stateMutability":"view"},{"type":"function","name":"pricePerFullShare","inputs":[{"name":"key","type":"tuple","internalType":"struct BunniKey","components":[{"name":"pool","type":"address","internalType":"contract IUniswapV3Pool"},{"name":"tickLower","type":"int24","internalType":"int24"},{"name":"tickUpper","type":"int24","internalType":"int24"}]}],"outputs":[{"name":"liquidity","type":"uint128","internalType":"uint128"},{"name":"amount0","type":"uint256","internalType":"uint256"},{"name":"amount1","type":"uint256","internalType":"uint256"}],"stateMutability":"view"},{"type":"error","name":"BunniLens_Reentrant","inputs":[{"name":"pool_","type":"address","internalType":"address"}]},{"type":"error","name":"T","inputs":[]}],"bytecode":{"object":"0x60a060405234801561001057600080fd5b5060405161138838038061138883398101604081905261002f91610040565b6001600160a01b0316608052610070565b60006020828403121561005257600080fd5b81516001600160a01b038116811461006957600080fd5b9392505050565b6080516112e26100a6600039600081816093015281816101300152818161025a0152818161055c015261071201526112e26000f3fe608060405234801561001057600080fd5b506004361061004c5760003560e01c8063342a747014610051578063365a86fc1461008e578063735485a2146100cd578063c29d4d88146100f5575b600080fd5b61006461005f366004610ecf565b610128565b604080516001600160801b0390941684526020840192909252908201526060015b60405180910390f35b6100b57f000000000000000000000000000000000000000000000000000000000000000081565b6040516001600160a01b039091168152602001610085565b6100e06100db366004610ecf565b610376565b60408051928352602083019190915201610085565b610108610103366004610ecf565b6106f1565b604080516001600160701b03938416815292909116602083015201610085565b6000806000807f00000000000000000000000000000000000000000000000000000000000000006001600160a01b031663056f6b2b866040518263ffffffff1660e01b815260040161017a9190610f0e565b602060405180830381865afa158015610197573d6000803e3d6000fd5b505050506040513d601f19601f820116820180604052508101906101bb9190610f5c565b90506000816001600160a01b03166318160ddd6040518163ffffffff1660e01b8152600401602060405180830381865afa1580156101fd573d6000803e3d6000fd5b505050506040513d601f19601f820116820180604052508101906102219190610f79565b90508060000361023d576000806000945094509450505061036f565b61024a6020870187610f92565b6001600160a01b031663514ea4bf7f000000000000000000000000000000000000000000000000000000000000000061028960408a0160208b01610faf565b61029960608b0160408c01610faf565b6040516020016102ab93929190610fcc565b604051602081830303815290604052805190602001206040518263ffffffff1660e01b81526004016102df91815260200190565b60a060405180830381865afa1580156102fc573d6000803e3d6000fd5b505050506040513d601f19601f820116820180604052508101906103209190611011565b509297508392506103469150670de0b6b3a764000090506001600160801b038816611068565b61035091906110ab565b945061035c86866107f2565b6001600160701b03918216955016925050505b9193909250565b600080806103876020850185610f92565b6001600160a01b0316633850c7bd6040518163ffffffff1660e01b815260040160e060405180830381865afa1580156103c4573d6000803e3d6000fd5b505050506040513d601f19601f820116820180604052508101906103e891906110ef565b50505050509150506000808560000160208101906104069190610f92565b6001600160a01b031663f30dba936104246040890160208a01610faf565b6040516001600160e01b031960e084901b16815260029190910b600482015260240161010060405180830381865afa158015610464573d6000803e3d6000fd5b505050506040513d601f19601f820116820180604052508101906104889190611182565b505050509350935050506000808760000160208101906104a89190610f92565b6001600160a01b031663f30dba936104c660608b0160408c01610faf565b6040516001600160e01b031960e084901b16815260029190910b600482015260240161010060405180830381865afa158015610506573d6000803e3d6000fd5b505050506040513d601f19601f8201168201806040525081019061052a9190611182565b5050505093509350505060008060008a600001602081019061054c9190610f92565b6001600160a01b031663514ea4bf7f00000000000000000000000000000000000000000000000000000000000000008d602001602081019061058e9190610faf565b8e60400160208101906105a19190610faf565b6040516020016105b393929190610fcc565b604051602081830303815290604052805190602001206040518263ffffffff1660e01b81526004016105e791815260200190565b60a060405180830381865afa158015610604573d6000803e3d6000fd5b505050506040513d601f19601f820116820180604052508101906106289190611011565b5092955090935091506000905061064260208d018d610f92565b6001600160a01b031663f30583996040518163ffffffff1660e01b8152600401602060405180830381865afa15801561067f573d6000803e3d6000fd5b505050506040513d601f19601f820116820180604052508101906106a39190610f79565b90506106c26106b7368e90038e018e61122c565b8a86868c8b87610919565b9a506106e16106d6368e90038e018e61122c565b8a86858b8a87610919565b9950505050505050505050915091565b600080806107026020850185610f92565b6001600160a01b031663514ea4bf7f00000000000000000000000000000000000000000000000000000000000000006107416040880160208901610faf565b6107516060890160408a01610faf565b60405160200161076393929190610fcc565b604051602081830303815290604052805190602001206040518263ffffffff1660e01b815260040161079791815260200190565b60a060405180830381865afa1580156107b4573d6000803e3d6000fd5b505050506040513d601f19601f820116820180604052508101906107d89190611011565b5050505090506107e884826107f2565b9250925050915091565b60008080806108046020870187610f92565b6001600160a01b0316633850c7bd6040518163ffffffff1660e01b815260040160e060405180830381865afa158015610841573d6000803e3d6000fd5b505050506040513d601f19601f8201168201806040525081019061086591906110ef565b96505050505050915080151560001515036108b0576108876020870187610f92565b604051630e9063e560e41b81526001600160a01b03909116600482015260240160405180910390fd5b60006108ca6108c56040890160208a01610faf565b610988565b905060006108e16108c560608a0160408b01610faf565b90506000806108f28685858c610cab565b915091506108ff82610d47565b975061090a81610d47565b96505050505050509250929050565b600080886020015160020b8860020b12610934575083610939565b508382035b6000896040015160020b8960020b1215610954575083610959565b508383035b8184038190036109796001600160801b038a16898303600160801b610d62565b9b9a5050505050505050505050565b60008060008360020b1261099f578260020b6109a7565b8260020b6000035b9050620d89e88111156109cd576040516315e4079d60e11b815260040160405180910390fd5b6000816001166000036109e457600160801b6109f6565b6ffffcb933bd6fad37aa2d162d1a5940015b70ffffffffffffffffffffffffffffffffff1690506002821615610a2a576ffff97272373d413259a46990580e213a0260801c5b6004821615610a49576ffff2e50f5f656932ef12357cf3c7fdcc0260801c5b6008821615610a68576fffe5caca7e10e4e61c3624eaa0941cd00260801c5b6010821615610a87576fffcb9843d60f6159c9db58835c9266440260801c5b6020821615610aa6576fff973b41fa98c081472e6896dfb254c00260801c5b6040821615610ac5576fff2ea16466c96a3843ec78b326b528610260801c5b6080821615610ae4576ffe5dee046a99a2a811c461f1969c30530260801c5b610100821615610b04576ffcbe86c7900a88aedcffc83b479aa3a40260801c5b610200821615610b24576ff987a7253ac413176f2b074cf7815e540260801c5b610400821615610b44576ff3392b0822b70005940c7a398e4b70f30260801c5b610800821615610b64576fe7159475a2c29b7443b29c7fa6e889d90260801c5b611000821615610b84576fd097f3bdfd2022b8845ad8f792aa58250260801c5b612000821615610ba4576fa9f746462d870fdf8a65dc1f90e061e50260801c5b614000821615610bc4576f70d869a156d2a1b890bb3df62baf32f70260801c5b618000821615610be4576f31be135f97d08fd981231505542fcfa60260801c5b62010000821615610c05576f09aa508b5b7a84e1c677de54f3e99bc90260801c5b62020000821615610c25576e5d6af8dedb81196699c329225ee6040260801c5b62040000821615610c44576d2216e584f5fa1ea926041bedfe980260801c5b62080000821615610c61576b048a170391f7dc42444e8fa20260801c5b60008460020b1315610c82578060001981610c7e57610c7e611095565b0490505b640100000000810615610c96576001610c99565b60005b60ff16602082901c0192505050919050565b600080836001600160a01b0316856001600160a01b03161115610ccc579293925b846001600160a01b0316866001600160a01b031611610cf757610cf0858585610e15565b9150610d3e565b836001600160a01b0316866001600160a01b03161015610d3057610d1c868585610e15565b9150610d29858785610e84565b9050610d3e565b610d3b858585610e84565b90505b94509492505050565b806001600160701b0381168114610d5d57600080fd5b919050565b6000808060001985870985870292508281108382030391505080600003610d9b5760008411610d9057600080fd5b508290049050610e0e565b808411610da757600080fd5b6000848688096000868103871696879004966002600389028118808a02820302808a02820302808a02820302808a02820302808a02820302808a02909103029181900381900460010186841190950394909402919094039290920491909117919091029150505b9392505050565b6000826001600160a01b0316846001600160a01b03161115610e35579192915b836001600160a01b0316610e6e606060ff16846001600160801b0316901b8686036001600160a01b0316866001600160a01b0316610d62565b81610e7b57610e7b611095565b04949350505050565b6000826001600160a01b0316846001600160a01b03161115610ea4579192915b610ec7826001600160801b03168585036001600160a01b0316600160601b610d62565b949350505050565b600060608284031215610ee157600080fd5b50919050565b6001600160a01b0381168114610efc57600080fd5b50565b8060020b8114610efc57600080fd5b606081018235610f1d81610ee7565b6001600160a01b031682526020830135610f3681610eff565b60020b60208301526040830135610f4c81610eff565b8060020b60408401525092915050565b600060208284031215610f6e57600080fd5b8151610e0e81610ee7565b600060208284031215610f8b57600080fd5b5051919050565b600060208284031215610fa457600080fd5b8135610e0e81610ee7565b600060208284031215610fc157600080fd5b8135610e0e81610eff565b60609390931b6bffffffffffffffffffffffff1916835260e891821b6014840152901b6017820152601a0190565b80516001600160801b0381168114610d5d57600080fd5b600080600080600060a0868803121561102957600080fd5b61103286610ffa565b9450602086015193506040860151925061104e60608701610ffa565b915061105c60808701610ffa565b90509295509295909350565b600081600019048311821515161561109057634e487b7160e01b600052601160045260246000fd5b500290565b634e487b7160e01b600052601260045260246000fd5b6000826110c857634e487b7160e01b600052601260045260246000fd5b500490565b805161ffff81168114610d5d57600080fd5b80518015158114610d5d57600080fd5b600080600080600080600060e0888a03121561110a57600080fd5b875161111581610ee7565b602089015190975061112681610eff565b9550611134604089016110cd565b9450611142606089016110cd565b9350611150608089016110cd565b925060a088015160ff8116811461116657600080fd5b915061117460c089016110df565b905092959891949750929550565b600080600080600080600080610100898b03121561119f57600080fd5b6111a889610ffa565b9750602089015180600f0b81146111be57600080fd5b80975050604089015195506060890151945060808901518060060b81146111e457600080fd5b60a08a01519094506111f581610ee7565b60c08a015190935063ffffffff8116811461120f57600080fd5b915061121d60e08a016110df565b90509295985092959890939650565b60006060828403121561123e57600080fd5b6040516060810181811067ffffffffffffffff8211171561126f57634e487b7160e01b600052604160045260246000fd5b604052823561127d81610ee7565b8152602083013561128d81610eff565b602082015260408301356112a081610eff565b6040820152939250505056fea2646970667358221220c4813c3e9858e6d872eea1c2d7309ff3ca472bc90613a4d8daf5c04c7df0948064736f6c634300080f0033","linkReferences":{}},"methodIdentifiers":{"getReserves((address,int24,int24))":"c29d4d88","getUncollectedFees((address,int24,int24))":"735485a2","hub()":"365a86fc","pricePerFullShare((address,int24,int24))":"342a7470"},"id":20}