{"abi":[{"type":"constructor","inputs":[],"stateMutability":"nonpayable"},{"type":"function","name":"getBunniTokenPrice","inputs":[{"name":"bunniToken_","type":"address","internalType":"address"},{"name":"outputDecimals_","type":"uint8","internalType":"uint8"},{"name":"params_","type":"bytes","internalType":"bytes"}],"outputs":[{"name":"","type":"uint256","internalType":"uint256"}],"stateMutability":"view"},{"type":"error","name":"BunniPrice_Params_HubMismatch","inputs":[{"name":"bunniTokenHub_","type":"address","internalType":"address"},{"name":"bunniLensHub_","type":"address","internalType":"address"}]},{"type":"error","name":"BunniPrice_Params_InvalidBunniLens","inputs":[{"name":"bunniLens_","type":"address","internalType":"address"}]},{"type":"error","name":"BunniPrice_Params_InvalidBunniToken","inputs":[{"name":"bunniToken_","type":"address","internalType":"address"}]},{"type":"error","name":"BunniPrice_PriceMismatch","inputs":[{"name":"pool_","type":"address","internalType":"address"},{"name":"baseInQuoteTWAP_","type":"uint256","internalType":"uint256"},{"name":"baseInQuotePrice_","type":"uint256","internalType":"uint256"}]},{"type":"error","name":"Deviation_InvalidDeviationBps","inputs":[{"name":"deviationBps_","type":"uint256","internalType":"uint256"},{"name":"deviationMax_","type":"uint256","internalType":"uint256"}]}],"bytecode":{"object":"0x608060405234801561001057600080fd5b50610de6806100206000396000f3fe608060405234801561001057600080fd5b506004361061002b5760003560e01c80633991cab414610030575b600080fd5b61004361003e3660046109e8565b610055565b60405190815260200160405180910390f35b6040805160608101825260008082526020820181905291810182905261007d83850185610a7a565b80519091506001600160a01b03166100bb5780516040516354389f1560e01b81526001600160a01b0390911660048201526024015b60405180910390fd5b6001600160a01b0386166100ed576040516304e3bae360e41b81526001600160a01b03871660048201526024016100b2565b60008690506000826000015190506000826001600160a01b031663365a86fc6040518163ffffffff1660e01b8152600401602060405180830381865afa925050508015610157575060408051601f3d908101601f1916820190925261015491810190610b0a565b60015b6101af573d808015610185576040519150601f19603f3d011682016040523d82523d6000602084013e61018a565b606091505b506040516304e3bae360e41b81526001600160a01b038b1660048201526024016100b2565b90506000826001600160a01b031663365a86fc6040518163ffffffff1660e01b8152600401602060405180830381865afa92505050801561020d575060408051601f3d908101601f1916820190925261020a91810190610b0a565b60015b610268573d80801561023b576040519150601f19603f3d011682016040523d82523d6000602084013e610240565b606091505b5085516040516354389f1560e01b81526001600160a01b0390911660048201526024016100b2565b9050806001600160a01b0316826001600160a01b0316146102af5760405163792a7f2360e11b81526001600160a01b038084166004830152821660248201526044016100b2565b50506102cd6102bd836102e7565b8285602001518660400151610456565b60006102da83838a6105ba565b9998505050505050505050565b60408051606081018252600080825260208201819052918101919091526040518060600160405280836001600160a01b03166316f0115b6040518163ffffffff1660e01b8152600401602060405180830381865afa15801561034d573d6000803e3d6000fd5b505050506040513d601f19601f820116820180604052508101906103719190610b0a565b6001600160a01b03168152602001836001600160a01b03166359c4f9056040518163ffffffff1660e01b8152600401602060405180830381865afa1580156103bd573d6000803e3d6000fd5b505050506040513d601f19601f820116820180604052508101906103e19190610b27565b60020b8152602001836001600160a01b03166355b812a86040518163ffffffff1660e01b8152600401602060405180830381865afa158015610427573d6000803e3d6000fd5b505050506040513d601f19601f8201168201806040525081019061044b9190610b27565b60020b905292915050565b60405163a547199b60e01b815260009073__$346a651351c07800978a4237d5c2358c09$__9063a547199b906104929088908890600401610b4a565b602060405180830381865af41580156104af573d6000803e3d6000fd5b505050506040513d601f19601f820116820180604052508101906104d39190610b95565b855160405163830647a160e01b81526001600160a01b03909116600482015263ffffffff8416602482015290915060009073__$ca346da7ca9bc11a670d341ae22aef2200$__9063830647a190604401602060405180830381865af4158015610540573d6000803e3d6000fd5b505050506040513d601f19601f820116820180604052508101906105649190610b95565b9050610578828261ffff87166127106105f6565b156105b2578551604051636cce95a960e01b81526001600160a01b03909116600482015260248101829052604481018390526064016100b2565b505050505050565b60008060008060006105cd888888610638565b9350935093509350600086600a6105e49190610caa565b506001955050505050505b9392505050565b60008183111561062357604051630c99f49f60e41b815260048101849052602481018390526044016100b2565b61062f858585856108c0565b95945050505050565b6000806000806000610649886102e7565b9050600080886001600160a01b031663c29d4d88846040518263ffffffff1660e01b815260040161067a9190610cb9565b6040805180830381865afa158015610696573d6000803e3d6000fd5b505050506040513d601f19601f820116820180604052508101906106ba9190610d08565b9150915082600001516001600160a01b0316630dfe16816040518163ffffffff1660e01b8152600401602060405180830381865afa158015610700573d6000803e3d6000fd5b505050506040513d601f19601f820116820180604052508101906107249190610b0a565b965082600001516001600160a01b031663d21220a76040518163ffffffff1660e01b8152600401602060405180830381865afa158015610768573d6000803e3d6000fd5b505050506040513d601f19601f8201168201806040525081019061078c9190610b0a565b94506000876001600160a01b031663313ce5676040518163ffffffff1660e01b8152600401602060405180830381865afa1580156107ce573d6000803e3d6000fd5b505050506040513d601f19601f820116820180604052508101906107f29190610d3b565b90506000866001600160a01b031663313ce5676040518163ffffffff1660e01b8152600401602060405180830381865afa158015610834573d6000803e3d6000fd5b505050506040513d601f19601f820116820180604052508101906108589190610d3b565b90506108846108688b600a610caa565b61087384600a610caa565b6001600160701b03871691906108e6565b97506108b06108948b600a610caa565b61089f83600a610caa565b6001600160701b03861691906108e6565b9550505050505093509350935093565b60008385106108da576108d585858585610994565b61062f565b61062f84868585610994565b600080806000198587098587029250828110838203039150508060000361091f576000841161091457600080fd5b5082900490506105ef565b80841161092b57600080fd5b60008486880960026001871981018816978890046003810283188082028403028082028403028082028403028082028403028082028403029081029092039091026000889003889004909101858311909403939093029303949094049190911702949350505050565b60008285836109a38783610d58565b6109ad9190610d6f565b6109b79190610d8e565b1195945050505050565b6001600160a01b03811681146109d657600080fd5b50565b60ff811681146109d657600080fd5b600080600080606085870312156109fe57600080fd5b8435610a09816109c1565b93506020850135610a19816109d9565b9250604085013567ffffffffffffffff80821115610a3657600080fd5b818701915087601f830112610a4a57600080fd5b813581811115610a5957600080fd5b886020828501011115610a6b57600080fd5b95989497505060200194505050565b600060608284031215610a8c57600080fd5b6040516060810181811067ffffffffffffffff82111715610abd57634e487b7160e01b600052604160045260246000fd5b6040528235610acb816109c1565b8152602083013561ffff81168114610ae257600080fd5b6020820152604083013563ffffffff81168114610afe57600080fd5b60408201529392505050565b600060208284031215610b1c57600080fd5b81516105ef816109c1565b600060208284031215610b3957600080fd5b81518060020b81146105ef57600080fd5b60808101610b7d828560018060a01b038151168252602081015160020b6020830152604081015160020b60408301525050565b6001600160a01b039290921660609190910152919050565b600060208284031215610ba757600080fd5b5051919050565b634e487b7160e01b600052601160045260246000fd5b600181815b80851115610bff578160001904821115610be557610be5610bae565b80851615610bf257918102915b93841c9390800290610bc9565b509250929050565b600082610c1657506001610ca4565b81610c2357506000610ca4565b8160018114610c395760028114610c4357610c5f565b6001915050610ca4565b60ff841115610c5457610c54610bae565b50506001821b610ca4565b5060208310610133831016604e8410600b8410161715610c82575081810a610ca4565b610c8c8383610bc4565b8060001904821115610ca057610ca0610bae565b0290505b92915050565b60006105ef60ff841683610c07565b60608101610ca4828460018060a01b038151168252602081015160020b6020830152604081015160020b60408301525050565b80516001600160701b0381168114610d0357600080fd5b919050565b60008060408385031215610d1b57600080fd5b610d2483610cec565b9150610d3260208401610cec565b90509250929050565b600060208284031215610d4d57600080fd5b81516105ef816109d9565b600082821015610d6a57610d6a610bae565b500390565b6000816000190483118215151615610d8957610d89610bae565b500290565b600082610dab57634e487b7160e01b600052601260045260246000fd5b50049056fea264697066735822122026ed726f2ed684c564e1a543f2c51f1d20ba85a12378f6ca8f46f9f00d3e709c64736f6c634300080f0033","linkReferences":{"src/BunniHelper.sol":{"BunniHelper":[{"start":1160,"length":20}]},"src/Oracle.sol":{"UniswapV3OracleHelper":[{"start":1318,"length":20}]}}},"methodIdentifiers":{"getBunniTokenPrice(address,uint8,bytes)":"3991cab4"},"id":19}